{
  "contractName": "loteria",
  "abi": [
    {
      "inputs": [],
      "stateMutability": "nonpayable",
      "type": "constructor"
    },
    {
      "anonymous": false,
      "inputs": [
        {
          "indexed": false,
          "internalType": "uint256",
          "name": "",
          "type": "uint256"
        },
        {
          "indexed": false,
          "internalType": "address",
          "name": "",
          "type": "address"
        }
      ],
      "name": "ComprandoTokens",
      "type": "event"
    },
    {
      "anonymous": false,
      "inputs": [
        {
          "indexed": false,
          "internalType": "uint256",
          "name": "",
          "type": "uint256"
        },
        {
          "indexed": false,
          "internalType": "address",
          "name": "",
          "type": "address"
        }
      ],
      "name": "boleto_comprado",
      "type": "event"
    },
    {
      "anonymous": false,
      "inputs": [
        {
          "indexed": false,
          "internalType": "uint256",
          "name": "",
          "type": "uint256"
        }
      ],
      "name": "boleto_ganador",
      "type": "event"
    },
    {
      "anonymous": false,
      "inputs": [
        {
          "indexed": false,
          "internalType": "uint256",
          "name": "",
          "type": "uint256"
        },
        {
          "indexed": false,
          "internalType": "address",
          "name": "",
          "type": "address"
        }
      ],
      "name": "tokens_devueltos",
      "type": "event"
    },
    {
      "inputs": [],
      "name": "PrecioBoleto",
      "outputs": [
        {
          "internalType": "uint256",
          "name": "",
          "type": "uint256"
        }
      ],
      "stateMutability": "view",
      "type": "function"
    },
    {
      "inputs": [],
      "name": "contrato",
      "outputs": [
        {
          "internalType": "address",
          "name": "",
          "type": "address"
        }
      ],
      "stateMutability": "view",
      "type": "function"
    },
    {
      "inputs": [],
      "name": "owner",
      "outputs": [
        {
          "internalType": "address",
          "name": "",
          "type": "address"
        }
      ],
      "stateMutability": "view",
      "type": "function"
    },
    {
      "inputs": [],
      "name": "tokens_creados",
      "outputs": [
        {
          "internalType": "uint256",
          "name": "",
          "type": "uint256"
        }
      ],
      "stateMutability": "view",
      "type": "function"
    },
    {
      "inputs": [
        {
          "internalType": "uint256",
          "name": "_numTokens",
          "type": "uint256"
        }
      ],
      "name": "GenerarTokens",
      "outputs": [],
      "stateMutability": "nonpayable",
      "type": "function"
    },
    {
      "inputs": [
        {
          "internalType": "uint256",
          "name": "_numTokens",
          "type": "uint256"
        }
      ],
      "name": "CompraTokens",
      "outputs": [],
      "stateMutability": "payable",
      "type": "function"
    },
    {
      "inputs": [],
      "name": "TokensDisponibles",
      "outputs": [
        {
          "internalType": "uint256",
          "name": "",
          "type": "uint256"
        }
      ],
      "stateMutability": "view",
      "type": "function"
    },
    {
      "inputs": [],
      "name": "Bote",
      "outputs": [
        {
          "internalType": "uint256",
          "name": "",
          "type": "uint256"
        }
      ],
      "stateMutability": "view",
      "type": "function"
    },
    {
      "inputs": [],
      "name": "MisTokens",
      "outputs": [
        {
          "internalType": "uint256",
          "name": "",
          "type": "uint256"
        }
      ],
      "stateMutability": "view",
      "type": "function"
    },
    {
      "inputs": [
        {
          "internalType": "uint256",
          "name": "_boletos",
          "type": "uint256"
        }
      ],
      "name": "CompraBoleto",
      "outputs": [],
      "stateMutability": "nonpayable",
      "type": "function"
    },
    {
      "inputs": [],
      "name": "TusBoletos",
      "outputs": [
        {
          "internalType": "uint256[]",
          "name": "",
          "type": "uint256[]"
        }
      ],
      "stateMutability": "view",
      "type": "function"
    },
    {
      "inputs": [],
      "name": "GenerarGanador",
      "outputs": [],
      "stateMutability": "nonpayable",
      "type": "function"
    },
    {
      "inputs": [
        {
          "internalType": "uint256",
          "name": "_numTokens",
          "type": "uint256"
        }
      ],
      "name": "DevolverTokens",
      "outputs": [],
      "stateMutability": "payable",
      "type": "function"
    }
  ],
  "bytecode": "0x6080604052612710600355600160045560006007553480156200002157600080fd5b50600354604051620000339062000124565b6200003f919062000143565b604051809103906000f0801580156200005c573d6000803e3d6000fd5b506000806101000a81548173ffffffffffffffffffffffffffffffffffffffff021916908373ffffffffffffffffffffffffffffffffffffffff16021790555033600160006101000a81548173ffffffffffffffffffffffffffffffffffffffff021916908373ffffffffffffffffffffffffffffffffffffffff16021790555030600260006101000a81548173ffffffffffffffffffffffffffffffffffffffff021916908373ffffffffffffffffffffffffffffffffffffffff1602179055506200016a565b61109d806200192a83390190565b6200013d8162000160565b82525050565b60006020820190506200015a600083018462000132565b92915050565b6000819050919050565b6117b0806200017a6000396000f3fe6080604052600436106100c25760003560e01c80638c11ff4c1161007f578063e33f34a011610059578063e33f34a014610223578063f77740911461024e578063fd62ed8c1461026a578063fd889ff514610295576100c2565b80638c11ff4c146101a25780638da5cb5b146101cd578063e1a01e67146101f8576100c2565b80631890154c146100c757806327909f27146100e35780635332eee51461010e57806374189861146101255780637c1b38bf146101505780638acb3a2114610179575b600080fd5b6100e160048036038101906100dc9190611053565b6102c0565b005b3480156100ef57600080fd5b506100f8610488565b60405161010591906115f3565b60405180910390f35b34801561011a57600080fd5b5061012361048e565b005b34801561013157600080fd5b5061013a6106f1565b60405161014791906115f3565b60405180910390f35b34801561015c57600080fd5b5061017760048036038101906101729190611053565b6107c4565b005b34801561018557600080fd5b506101a0600480360381019061019b9190611053565b6108e4565b005b3480156101ae57600080fd5b506101b7610b92565b6040516101c491906114f1565b60405180910390f35b3480156101d957600080fd5b506101e2610c27565b6040516101ef919061145b565b60405180910390f35b34801561020457600080fd5b5061020d610c4d565b60405161021a919061145b565b60405180910390f35b34801561022f57600080fd5b50610238610c73565b60405161024591906115f3565b60405180910390f35b61026860048036038101906102639190611053565b610d24565b005b34801561027657600080fd5b5061027f610efe565b60405161028c91906115f3565b60405180910390f35b3480156102a157600080fd5b506102aa610f04565b6040516102b791906115f3565b60405180910390f35b60008111610303576040517f08c379a00000000000000000000000000000000000000000000000000000000081526004016102fa90611553565b60405180910390fd5b61030b610c73565b81111561034d576040517f08c379a000000000000000000000000000000000000000000000000000000000815260040161034490611593565b60405180910390fd5b60008054906101000a900473ffffffffffffffffffffffffffffffffffffffff1673ffffffffffffffffffffffffffffffffffffffff1663f7a1d1943330846040518463ffffffff1660e01b81526004016103aa93929190611491565b602060405180830381600087803b1580156103c457600080fd5b505af11580156103d8573d6000803e3d6000fd5b505050506040513d601f19601f820116820180604052508101906103fc919061102a565b503373ffffffffffffffffffffffffffffffffffffffff166108fc61042083610fd7565b9081150290604051600060405180830381858888f1935050505015801561044b573d6000803e3d6000fd5b507fedb4e62d28b4facd6d91f70625ac1ea2c1a9cac0ecc3e638b50633575d818a4e813360405161047d92919061160e565b60405180910390a150565b60045481565b33600160009054906101000a900473ffffffffffffffffffffffffffffffffffffffff1673ffffffffffffffffffffffffffffffffffffffff168173ffffffffffffffffffffffffffffffffffffffff161461051f576040517f08c379a0000000000000000000000000000000000000000000000000000000008152600401610516906115b3565b60405180910390fd5b600060088054905011610567576040517f08c379a000000000000000000000000000000000000000000000000000000000815260040161055e90611573565b60405180910390fd5b60006008805490509050600081426040516020016105859190611403565b6040516020818303038152906040528051906020012060001c816105a557fe5b0690506000600882815481106105b757fe5b906000526020600020015490507f7ae8aa8a76009e9379a432b67d892b6006479447de6892c862ce780785a2387d816040516105f391906115f3565b60405180910390a160006006600083815260200190815260200160002060009054906101000a900473ffffffffffffffffffffffffffffffffffffffff16905060008054906101000a900473ffffffffffffffffffffffffffffffffffffffff1673ffffffffffffffffffffffffffffffffffffffff1663f7a1d19433836106796106f1565b6040518463ffffffff1660e01b815260040161069793929190611491565b602060405180830381600087803b1580156106b157600080fd5b505af11580156106c5573d6000803e3d6000fd5b505050506040513d601f19601f820116820180604052508101906106e9919061102a565b505050505050565b60008060009054906101000a900473ffffffffffffffffffffffffffffffffffffffff1673ffffffffffffffffffffffffffffffffffffffff166370a08231600160009054906101000a900473ffffffffffffffffffffffffffffffffffffffff166040518263ffffffff1660e01b815260040161076f919061145b565b60206040518083038186803b15801561078757600080fd5b505afa15801561079b573d6000803e3d6000fd5b505050506040513d601f19601f820116820180604052508101906107bf919061107c565b905090565b33600160009054906101000a900473ffffffffffffffffffffffffffffffffffffffff1673ffffffffffffffffffffffffffffffffffffffff168173ffffffffffffffffffffffffffffffffffffffff1614610855576040517f08c379a000000000000000000000000000000000000000000000000000000000815260040161084c906115b3565b60405180910390fd5b60008054906101000a900473ffffffffffffffffffffffffffffffffffffffff1673ffffffffffffffffffffffffffffffffffffffff16634ee22adf836040518263ffffffff1660e01b81526004016108ae91906115f3565b600060405180830381600087803b1580156108c857600080fd5b505af11580156108dc573d6000803e3d6000fd5b505050505050565b6000600454820290506108f5610c73565b811115610937576040517f08c379a000000000000000000000000000000000000000000000000000000000815260040161092e90611513565b60405180910390fd5b60008054906101000a900473ffffffffffffffffffffffffffffffffffffffff1673ffffffffffffffffffffffffffffffffffffffff1663f7a1d19433600160009054906101000a900473ffffffffffffffffffffffffffffffffffffffff16846040518463ffffffff1660e01b81526004016109b693929190611491565b602060405180830381600087803b1580156109d057600080fd5b505af11580156109e4573d6000803e3d6000fd5b505050506040513d601f19601f82011682018060405250810190610a08919061102a565b5060005b82811015610b8d5760006127104233600754604051602001610a309392919061141e565b6040516020818303038152906040528051906020012060001c81610a5057fe5b069050600760008154809291906001019190505550600560003373ffffffffffffffffffffffffffffffffffffffff1673ffffffffffffffffffffffffffffffffffffffff1681526020019081526020016000208190806001815401808255809150506001900390600052602060002001600090919091909150556008819080600181540180825580915050600190039060005260206000200160009091909190915055336006600083815260200190815260200160002060006101000a81548173ffffffffffffffffffffffffffffffffffffffff021916908373ffffffffffffffffffffffffffffffffffffffff1602179055507f3dc84428040dff15296d25a054aea6c52a38e013683cf8175ec47e9849d101fe8133604051610b7792919061160e565b60405180910390a1508080600101915050610a0c565b505050565b6060600560003373ffffffffffffffffffffffffffffffffffffffff1673ffffffffffffffffffffffffffffffffffffffff168152602001908152602001600020805480602002602001604051908101604052809291908181526020018280548015610c1d57602002820191906000526020600020905b815481526020019060010190808311610c09575b5050505050905090565b600160009054906101000a900473ffffffffffffffffffffffffffffffffffffffff1681565b600260009054906101000a900473ffffffffffffffffffffffffffffffffffffffff1681565b60008060009054906101000a900473ffffffffffffffffffffffffffffffffffffffff1673ffffffffffffffffffffffffffffffffffffffff166370a08231336040518263ffffffff1660e01b8152600401610ccf9190611476565b60206040518083038186803b158015610ce757600080fd5b505afa158015610cfb573d6000803e3d6000fd5b505050506040513d601f19601f82011682018060405250810190610d1f919061107c565b905090565b6000610d2f82610fd7565b905080341015610d74576040517f08c379a0000000000000000000000000000000000000000000000000000000008152600401610d6b906115d3565b60405180910390fd5b600081340390503373ffffffffffffffffffffffffffffffffffffffff166108fc829081150290604051600060405180830381858888f19350505050158015610dc1573d6000803e3d6000fd5b506000610dcc610f04565b905080841115610e11576040517f08c379a0000000000000000000000000000000000000000000000000000000008152600401610e0890611533565b60405180910390fd5b60008054906101000a900473ffffffffffffffffffffffffffffffffffffffff1673ffffffffffffffffffffffffffffffffffffffff1663a9059cbb33866040518363ffffffff1660e01b8152600401610e6c9291906114c8565b602060405180830381600087803b158015610e8657600080fd5b505af1158015610e9a573d6000803e3d6000fd5b505050506040513d601f19601f82011682018060405250810190610ebe919061102a565b507fc5d46be962adb867acf29dce93ab611e9064bffee951e4db9e52c693f73f4c388433604051610ef092919061160e565b60405180910390a150505050565b60035481565b60008060009054906101000a900473ffffffffffffffffffffffffffffffffffffffff1673ffffffffffffffffffffffffffffffffffffffff166370a08231600260009054906101000a900473ffffffffffffffffffffffffffffffffffffffff166040518263ffffffff1660e01b8152600401610f82919061145b565b60206040518083038186803b158015610f9a57600080fd5b505afa158015610fae573d6000803e3d6000fd5b505050506040513d601f19601f82011682018060405250810190610fd2919061107c565b905090565b6000670de0b6b3a764000082029050919050565b600081519050610ffa8161174c565b92915050565b60008135905061100f81611763565b92915050565b60008151905061102481611763565b92915050565b60006020828403121561103c57600080fd5b600061104a84828501610feb565b91505092915050565b60006020828403121561106557600080fd5b600061107384828501611000565b91505092915050565b60006020828403121561108e57600080fd5b600061109c84828501611015565b91505092915050565b60006110b183836113ce565b60208301905092915050565b6110c6816116db565b82525050565b6110dd6110d882611693565b611711565b82525050565b6110ec81611681565b82525050565b60006110fd82611647565b611107818561165f565b935061111283611637565b8060005b8381101561114357815161112a88826110a5565b975061113583611652565b925050600181019050611116565b5085935050505092915050565b600061115d601c83611670565b91507f6e656365736974617320636f6d70726172206d617320746f6b656e73000000006000830152602082019050919050565b600061119d602383611670565b91507f436f6d70726120756e206e756d65726f20646520746f6b656e7320616465637560008301527f61646f00000000000000000000000000000000000000000000000000000000006020830152604082019050919050565b6000611203602f83611670565b91507f6e6563657369746173206465766f6c76657220756e206e756d65726f20706f7360008301527f697469766f20646520746f6b656e7300000000000000000000000000000000006020830152604082019050919050565b6000611269601883611670565b91507f6e6f2068617920626f6c65746f7320636f6d707261646f7300000000000000006000830152602082019050919050565b60006112a9602883611670565b91507f6e6f207469656e6573206c6f7320746f6b656e7320717565206465736561732060008301527f6465766f6c7665720000000000000000000000000000000000000000000000006020830152604082019050919050565b600061130f602d83611670565b91507f6e6f207469656e6573207065726d69736f73207061726120656a65637574617260008301527f20657374612066756e63696f6e000000000000000000000000000000000000006020830152604082019050919050565b6000611375602983611670565b91507f436f6d707261206d656e6f7320746f6b656e73206f207061676120636f6e206d60008301527f61732065746865727300000000000000000000000000000000000000000000006020830152604082019050919050565b6113d7816116d1565b82525050565b6113e6816116d1565b82525050565b6113fd6113f8826116d1565b611735565b82525050565b600061140f82846113ec565b60208201915081905092915050565b600061142a82866113ec565b60208201915061143a82856110cc565b60148201915061144a82846113ec565b602082019150819050949350505050565b600060208201905061147060008301846110e3565b92915050565b600060208201905061148b60008301846110bd565b92915050565b60006060820190506114a660008301866110bd565b6114b360208301856110e3565b6114c060408301846113dd565b949350505050565b60006040820190506114dd60008301856110bd565b6114ea60208301846113dd565b9392505050565b6000602082019050818103600083015261150b81846110f2565b905092915050565b6000602082019050818103600083015261152c81611150565b9050919050565b6000602082019050818103600083015261154c81611190565b9050919050565b6000602082019050818103600083015261156c816111f6565b9050919050565b6000602082019050818103600083015261158c8161125c565b9050919050565b600060208201905081810360008301526115ac8161129c565b9050919050565b600060208201905081810360008301526115cc81611302565b9050919050565b600060208201905081810360008301526115ec81611368565b9050919050565b600060208201905061160860008301846113dd565b92915050565b600060408201905061162360008301856113dd565b61163060208301846110bd565b9392505050565b6000819050602082019050919050565b600081519050919050565b6000602082019050919050565b600082825260208201905092915050565b600082825260208201905092915050565b600061168c826116b1565b9050919050565b600061169e826116b1565b9050919050565b60008115159050919050565b600073ffffffffffffffffffffffffffffffffffffffff82169050919050565b6000819050919050565b60006116e6826116ed565b9050919050565b60006116f8826116ff565b9050919050565b600061170a826116b1565b9050919050565b600061171c82611723565b9050919050565b600061172e8261173f565b9050919050565b6000819050919050565b60008160601b9050919050565b611755816116a5565b811461176057600080fd5b50565b61176c816116d1565b811461177757600080fd5b5056fea26469706673582212202c051849238dcdce7bc578cc52a751d4ef7c1c1cf717e5da2e67f7f43f9ab17864736f6c634300060c0033608060405234801561001057600080fd5b5060405161109d38038061109d83398181016040528101906100329190610099565b806002819055506002546000803373ffffffffffffffffffffffffffffffffffffffff1673ffffffffffffffffffffffffffffffffffffffff16815260200190815260200160002081905550506100e3565b600081519050610093816100cc565b92915050565b6000602082840312156100ab57600080fd5b60006100b984828501610084565b91505092915050565b6000819050919050565b6100d5816100c2565b81146100e057600080fd5b50565b610fab806100f26000396000f3fe608060405234801561001057600080fd5b50600436106100a95760003560e01c80634ee22adf116100715780634ee22adf1461016857806370a082311461018457806395d89b41146101b4578063a9059cbb146101d2578063dd62ed3e14610202578063f7a1d19414610232576100a9565b806306fdde03146100ae578063095ea7b3146100cc57806318160ddd146100fc57806323b872dd1461011a578063313ce5671461014a575b600080fd5b6100b6610262565b6040516100c39190610e3a565b60405180910390f35b6100e660048036038101906100e19190610d54565b61029b565b6040516100f39190610e1f565b60405180910390f35b61010461038d565b6040516101119190610e5c565b60405180910390f35b610134600480360381019061012f9190610d05565b610397565b6040516101419190610e1f565b60405180910390f35b610152610712565b60405161015f9190610e77565b60405180910390f35b610182600480360381019061017d9190610d90565b610717565b005b61019e60048036038101906101999190610ca0565b610776565b6040516101ab9190610e5c565b60405180910390f35b6101bc6107be565b6040516101c99190610e3a565b60405180910390f35b6101ec60048036038101906101e79190610d54565b6107f7565b6040516101f99190610e1f565b60405180910390f35b61021c60048036038101906102179190610cc9565b6109d9565b6040516102299190610e5c565b60405180910390f35b61024c60048036038101906102479190610d05565b610a60565b6040516102599190610e1f565b60405180910390f35b6040518060400160405280600a81526020017f455243323042617369630000000000000000000000000000000000000000000081525081565b600081600160003373ffffffffffffffffffffffffffffffffffffffff1673ffffffffffffffffffffffffffffffffffffffff16815260200190815260200160002060008573ffffffffffffffffffffffffffffffffffffffff1673ffffffffffffffffffffffffffffffffffffffff168152602001908152602001600020819055508273ffffffffffffffffffffffffffffffffffffffff163373ffffffffffffffffffffffffffffffffffffffff167f8c5be1e5ebec7d5bd14f71427d1e84f3dd0314c0f7b2291e5b200ac8c7c3b9258460405161037b9190610e5c565b60405180910390a36001905092915050565b6000600254905090565b60008060008573ffffffffffffffffffffffffffffffffffffffff1673ffffffffffffffffffffffffffffffffffffffff168152602001908152602001600020548211156103e457600080fd5b600160008573ffffffffffffffffffffffffffffffffffffffff1673ffffffffffffffffffffffffffffffffffffffff16815260200190815260200160002060003373ffffffffffffffffffffffffffffffffffffffff1673ffffffffffffffffffffffffffffffffffffffff1681526020019081526020016000205482111561046d57600080fd5b6104be826000808773ffffffffffffffffffffffffffffffffffffffff1673ffffffffffffffffffffffffffffffffffffffff16815260200190815260200160002054610c4390919063ffffffff16565b6000808673ffffffffffffffffffffffffffffffffffffffff1673ffffffffffffffffffffffffffffffffffffffff1681526020019081526020016000208190555061058f82600160008773ffffffffffffffffffffffffffffffffffffffff1673ffffffffffffffffffffffffffffffffffffffff16815260200190815260200160002060003373ffffffffffffffffffffffffffffffffffffffff1673ffffffffffffffffffffffffffffffffffffffff16815260200190815260200160002054610c4390919063ffffffff16565b600160008673ffffffffffffffffffffffffffffffffffffffff1673ffffffffffffffffffffffffffffffffffffffff16815260200190815260200160002060003373ffffffffffffffffffffffffffffffffffffffff1673ffffffffffffffffffffffffffffffffffffffff16815260200190815260200160002081905550610660826000808673ffffffffffffffffffffffffffffffffffffffff1673ffffffffffffffffffffffffffffffffffffffff16815260200190815260200160002054610c5a90919063ffffffff16565b6000808573ffffffffffffffffffffffffffffffffffffffff1673ffffffffffffffffffffffffffffffffffffffff168152602001908152602001600020819055508273ffffffffffffffffffffffffffffffffffffffff168473ffffffffffffffffffffffffffffffffffffffff167fddf252ad1be2c89b69c2b068fc378daa952ba7f163c4a11628f55a4df523b3ef846040516106ff9190610e5c565b60405180910390a3600190509392505050565b600281565b80600260008282540192505081905550806000803373ffffffffffffffffffffffffffffffffffffffff1673ffffffffffffffffffffffffffffffffffffffff1681526020019081526020016000206000828254019250508190555050565b60008060008373ffffffffffffffffffffffffffffffffffffffff1673ffffffffffffffffffffffffffffffffffffffff168152602001908152602001600020549050919050565b6040518060400160405280600981526020017f4a424a2d544f4b454e000000000000000000000000000000000000000000000081525081565b60008060003373ffffffffffffffffffffffffffffffffffffffff1673ffffffffffffffffffffffffffffffffffffffff1681526020019081526020016000205482111561084457600080fd5b610895826000803373ffffffffffffffffffffffffffffffffffffffff1673ffffffffffffffffffffffffffffffffffffffff16815260200190815260200160002054610c4390919063ffffffff16565b6000803373ffffffffffffffffffffffffffffffffffffffff1673ffffffffffffffffffffffffffffffffffffffff16815260200190815260200160002081905550610928826000808673ffffffffffffffffffffffffffffffffffffffff1673ffffffffffffffffffffffffffffffffffffffff16815260200190815260200160002054610c5a90919063ffffffff16565b6000808573ffffffffffffffffffffffffffffffffffffffff1673ffffffffffffffffffffffffffffffffffffffff168152602001908152602001600020819055508273ffffffffffffffffffffffffffffffffffffffff163373ffffffffffffffffffffffffffffffffffffffff167fddf252ad1be2c89b69c2b068fc378daa952ba7f163c4a11628f55a4df523b3ef846040516109c79190610e5c565b60405180910390a36001905092915050565b6000600160008473ffffffffffffffffffffffffffffffffffffffff1673ffffffffffffffffffffffffffffffffffffffff16815260200190815260200160002060008373ffffffffffffffffffffffffffffffffffffffff1673ffffffffffffffffffffffffffffffffffffffff16815260200190815260200160002054905092915050565b60008060008573ffffffffffffffffffffffffffffffffffffffff1673ffffffffffffffffffffffffffffffffffffffff16815260200190815260200160002054821115610aad57600080fd5b610afe826000808773ffffffffffffffffffffffffffffffffffffffff1673ffffffffffffffffffffffffffffffffffffffff16815260200190815260200160002054610c4390919063ffffffff16565b6000808673ffffffffffffffffffffffffffffffffffffffff1673ffffffffffffffffffffffffffffffffffffffff16815260200190815260200160002081905550610b91826000808673ffffffffffffffffffffffffffffffffffffffff1673ffffffffffffffffffffffffffffffffffffffff16815260200190815260200160002054610c5a90919063ffffffff16565b6000808573ffffffffffffffffffffffffffffffffffffffff1673ffffffffffffffffffffffffffffffffffffffff168152602001908152602001600020819055508273ffffffffffffffffffffffffffffffffffffffff168473ffffffffffffffffffffffffffffffffffffffff167fddf252ad1be2c89b69c2b068fc378daa952ba7f163c4a11628f55a4df523b3ef84604051610c309190610e5c565b60405180910390a3600190509392505050565b600082821115610c4f57fe5b818303905092915050565b600080828401905083811015610c6c57fe5b8091505092915050565b600081359050610c8581610f47565b92915050565b600081359050610c9a81610f5e565b92915050565b600060208284031215610cb257600080fd5b6000610cc084828501610c76565b91505092915050565b60008060408385031215610cdc57600080fd5b6000610cea85828601610c76565b9250506020610cfb85828601610c76565b9150509250929050565b600080600060608486031215610d1a57600080fd5b6000610d2886828701610c76565b9350506020610d3986828701610c76565b9250506040610d4a86828701610c8b565b9150509250925092565b60008060408385031215610d6757600080fd5b6000610d7585828601610c76565b9250506020610d8685828601610c8b565b9150509250929050565b600060208284031215610da257600080fd5b6000610db084828501610c8b565b91505092915050565b610dc281610ec0565b82525050565b6000610dd382610e92565b610ddd8185610e9d565b9350610ded818560208601610f03565b610df681610f36565b840191505092915050565b610e0a81610eec565b82525050565b610e1981610ef6565b82525050565b6000602082019050610e346000830184610db9565b92915050565b60006020820190508181036000830152610e548184610dc8565b905092915050565b6000602082019050610e716000830184610e01565b92915050565b6000602082019050610e8c6000830184610e10565b92915050565b600081519050919050565b600082825260208201905092915050565b6000610eb982610ecc565b9050919050565b60008115159050919050565b600073ffffffffffffffffffffffffffffffffffffffff82169050919050565b6000819050919050565b600060ff82169050919050565b60005b83811015610f21578082015181840152602081019050610f06565b83811115610f30576000848401525b50505050565b6000601f19601f8301169050919050565b610f5081610eae565b8114610f5b57600080fd5b50565b610f6781610eec565b8114610f7257600080fd5b5056fea26469706673582212209842609f829d4d27e33c6c74158a3492725d2d01c878b84fac43ba7afdf6bf9164736f6c634300060c0033",
  "immutableReferences": {},
  "source": "// SPDX-License-Identifier: MIT\r\npragma solidity >=0.4.4 <0.7.0;\r\npragma experimental ABIEncoderV2;\r\nimport \"./ERC20.sol\";\r\n\r\ncontract loteria {\r\n\r\n    //instancia del contrato token\r\n    ERC20Basic private token;\r\n\r\n    //direcciones\r\n    address public owner;\r\n    address public contrato;\r\n\r\n    //numero de tokens a crear\r\n    uint public tokens_creados = 10000;\r\n\r\n    //evento de compra de tokens\r\n    event ComprandoTokens(uint, address);\r\n\r\n    constructor () public {\r\n        token = new ERC20Basic(tokens_creados);\r\n        owner = msg.sender;\r\n        contrato = address(this);\r\n    }\r\n\r\n    //------------------token-------------------\r\n    function PrecioToken(uint _numTokens) internal pure returns (uint){\r\n        return _numTokens*(1 ether);\r\n    }\r\n\r\n    //Generar mas tokens por loteria\r\n    function GenerarTokens(uint _numTokens) public Unicamente(msg.sender){\r\n        token.increaseTotalSuply(_numTokens);\r\n    }\r\n\r\n    //modifcador para hacer funciones solomente accesibles por el owner del contrato\r\n    modifier Unicamente(address _direccion){\r\n        require(_direccion == owner, \"no tienes permisos para ejecutar esta funcion\");\r\n        _;\r\n    }\r\n\r\n    //Comprar tokens para comprar boletos/tickets para la loteria\r\n    function CompraTokens(uint _numTokens) public payable {\r\n        //Calcular el coste de los tokens\r\n        uint coste = PrecioToken(_numTokens);\r\n        //se requiere que el valor de ethers pagados sea equivalente al coste \r\n        require(msg.value >= coste, \"Compra menos tokens o paga con mas ethers\");\r\n        uint returnValue = msg.value - coste;\r\n        //transferencia de la diferencia\r\n        msg.sender.transfer(returnValue);\r\n        //obtener el balance de tokens del contrato\r\n        uint Balance = TokensDisponibles();\r\n        //filtro para evaluar los tokens a comprar con los tokens disponibles\r\n        require(_numTokens <= Balance, \"Compra un numero de tokens adecuado\");\r\n        //transferencia de tokens al comprador\r\n        token.transfer(msg.sender, _numTokens);\r\n        //emitir el evento de compra\r\n        emit ComprandoTokens(_numTokens, msg.sender);\r\n    }\r\n\r\n    //Balance de tokens en el contrato de loteria\r\n    function TokensDisponibles()public view returns (uint){\r\n        return token.balanceOf(contrato);\r\n    }\r\n\r\n    //Obtener el balance de tokens acumulados en el Bote\r\n    function Bote() public view returns(uint){\r\n        return token.balanceOf(owner);\r\n    }\r\n\r\n    //Balance de tokens de una persona\r\n    function MisTokens() public view returns (uint){\r\n        return token.balanceOf(msg.sender);\r\n    }\r\n\r\n    //---------loteria--------------------\r\n\r\n    //Precio del boleto\r\n    uint public PrecioBoleto = 1;\r\n    //Relacion entre la persona que compra los boletos y los numeros de los boletos\r\n    mapping(address => uint[]) idPersona_boletos;\r\n    //Relacion necesaria poara identificar al ganador\r\n    mapping (uint => address) ADN_boleto;\r\n    //Numero aleatorio\r\n    uint randNonce = 0;\r\n    //Boletos generados\r\n    uint [] boletos_comprados;\r\n    //Eventos\r\n    event boleto_comprado(uint, address); // evento cuando se compra un boleto\r\n    event boleto_ganador(uint); //evento del ganador\r\n    event tokens_devueltos(uint, address); //evento para devolver tokens\r\n\r\n    //funcion para comprar boletos de loteria\r\n    function CompraBoleto(uint _boletos) public{\r\n        //precio total de los boletos a comprar\r\n        uint precio_total = _boletos*PrecioBoleto;\r\n        //filtrado de los tokens a pagar\r\n        require(precio_total <= MisTokens(), \"necesitas comprar mas tokens\");\r\n        //transferencia de tokens al owner -> bote/premio\r\n        token.transferencia_loteria(msg.sender, owner, precio_total);\r\n\r\n        for(uint i = 0 ; i < _boletos ; i++){\r\n            //generamos un numero aleatorio con el tiempo actual la direcion del emisor y un numero incrementable para que no se repita\r\n            uint random = uint(keccak256(abi.encodePacked(now, msg.sender, randNonce))) % 10000;\r\n            randNonce++;\r\n            //almacenamos los numeros de los boletos\r\n            idPersona_boletos[msg.sender].push(random);\r\n            //numero de boleto comprado\r\n            boletos_comprados.push(random);\r\n            //asignacion del adni del boleto para tener un ganador\r\n            ADN_boleto[random] = msg.sender;\r\n            //emision evento\r\n            emit boleto_comprado(random, msg.sender);\r\n        }\r\n    }\r\n\r\n    //visualizar el numero de boletos de una persona\r\n    function TusBoletos() public view returns (uint [] memory){\r\n        return idPersona_boletos[msg.sender];\r\n    }\r\n\r\n    //funcion para generar un ganador e ingresarle los tokens\r\n    function GenerarGanador() public Unicamente(msg.sender){\r\n        require(boletos_comprados.length > 0, \"no hay boletos comprados\");\r\n        //declaracion de la longitud del array\r\n        uint longitud = boletos_comprados.length;\r\n        //aleatoriamente elijo un numero entre 0 - longitud\r\n        uint posicion_array = uint(uint(keccak256(abi.encodePacked(now))) % longitud);\r\n        //seleccion del numero aleatorio mediante la posicion del array aleatoria\r\n        uint eleccion = boletos_comprados[posicion_array];\r\n        //emision del boleto ganador\r\n        emit boleto_ganador(eleccion);\r\n        //Recuperar la direccion del ganador\r\n        address direccion_ganador = ADN_boleto[eleccion];\r\n        //enviarle los tokens del premio al ganador\r\n        token.transferencia_loteria(msg.sender, direccion_ganador, Bote());\r\n    }\r\n\r\n\r\n    //devolucion de los tokens\r\n    function DevolverTokens(uint _numTokens) public payable {\r\n        //el numero de tokens a devolver debe ser mayor a 0\r\n        require(_numTokens > 0, \"necesitas devolver un numero positivo de tokens\");\r\n        //el usuario debe tener los tokens que desea devolver\r\n        require(_numTokens <= MisTokens(), \"no tienes los tokens que deseas devolver\");\r\n        //el cliente devuelve los tokens\r\n        token.transferencia_loteria(msg.sender, address(this), _numTokens);\r\n        msg.sender.transfer(PrecioToken(_numTokens));\r\n        //emision del evento\r\n        emit tokens_devueltos(_numTokens, msg.sender);\r\n\r\n    }\r\n    \r\n}",
  "sourcePath": "C:\\Users\\willf\\OneDrive\\Escritorio\\appWeb3\\loteria-app\\contracts\\loteria.sol",
  "compiler": {
    "name": "solc",
    "version": "0.6.12+commit.27d51765.Emscripten.clang"
  },
  "schemaVersion": "3.4.7",
  "updatedAt": "2022-05-23T14:25:09.617Z",
  "devdoc": {
    "kind": "dev",
    "methods": {},
    "version": 1
  },
  "userdoc": {
    "kind": "user",
    "methods": {},
    "version": 1
  }
}